{
  "contractName": "Faucet",
  "abi": [
    {
      "inputs": [
        {
          "internalType": "uint256",
          "name": "",
          "type": "uint256"
        }
      ],
      "name": "funders",
      "outputs": [
        {
          "internalType": "address",
          "name": "",
          "type": "address"
        }
      ],
      "stateMutability": "view",
      "type": "function",
      "constant": true
    },
    {
      "stateMutability": "payable",
      "type": "receive",
      "payable": true
    },
    {
      "inputs": [],
      "name": "addFunds",
      "outputs": [],
      "stateMutability": "payable",
      "type": "function",
      "payable": true
    },
    {
      "inputs": [],
      "name": "getAllFunders",
      "outputs": [
        {
          "internalType": "address[]",
          "name": "",
          "type": "address[]"
        }
      ],
      "stateMutability": "view",
      "type": "function",
      "constant": true
    }
  ],
  "bytecode": "0x608060405234801561001057600080fd5b506103c2806100206000396000f3fe6080604052600436106100385760003560e01c80636fbbb55d14610044578063a26759cb1461006f578063dc0d3dff146100795761003f565b3661003f57005b600080fd5b34801561005057600080fd5b506100596100b6565b60405161006691906102d8565b60405180910390f35b610077610144565b005b34801561008557600080fd5b506100a0600480360381019061009b9190610335565b6101a9565b6040516100ad9190610371565b60405180910390f35b6060600080548060200260200160405190810160405280929190818152602001828054801561013a57602002820191906000526020600020905b8160009054906101000a900473ffffffffffffffffffffffffffffffffffffffff1673ffffffffffffffffffffffffffffffffffffffff16815260200190600101908083116100f0575b5050505050905090565b6000339080600181540180825580915050600190039060005260206000200160009091909190916101000a81548173ffffffffffffffffffffffffffffffffffffffff021916908373ffffffffffffffffffffffffffffffffffffffff160217905550565b600081815481106101b957600080fd5b906000526020600020016000915054906101000a900473ffffffffffffffffffffffffffffffffffffffff1681565b600081519050919050565b600082825260208201905092915050565b6000819050602082019050919050565b600073ffffffffffffffffffffffffffffffffffffffff82169050919050565b600061023f82610214565b9050919050565b61024f81610234565b82525050565b60006102618383610246565b60208301905092915050565b6000602082019050919050565b6000610285826101e8565b61028f81856101f3565b935061029a83610204565b8060005b838110156102cb5781516102b28882610255565b97506102bd8361026d565b92505060018101905061029e565b5085935050505092915050565b600060208201905081810360008301526102f2818461027a565b905092915050565b600080fd5b6000819050919050565b610312816102ff565b811461031d57600080fd5b50565b60008135905061032f81610309565b92915050565b60006020828403121561034b5761034a6102fa565b5b600061035984828501610320565b91505092915050565b61036b81610234565b82525050565b60006020820190506103866000830184610362565b9291505056fea2646970667358221220f8f192d042425276dfdf68d339d8a40e79bda09052ac3041c01441a416d5abaf64736f6c634300080e0033",
  "immutableReferences": {},
  "source": "// SPDX-License-Identifier: MIT\npragma solidity >=0.4.22 <0.9.0;\n\ncontract Faucet {\n\n\taddress[] public funders;\n\n\treceive() external payable {}\n\n\tfunction addFunds() external payable {\n\t\tfunders.push(msg.sender);\n\t}\n\n\tfunction getAllFunders() external view returns (address[] memory) {\n\t\treturn funders;\n\t}\n}",
  "sourcePath": "/home/oliver/code/learn/faucet/contracts/Faucet.sol",
  "compiler": {
    "name": "solc",
    "version": "0.8.14+commit.80d49f37.Emscripten.clang"
  },
  "schemaVersion": "3.4.7",
  "updatedAt": "2022-05-30T03:25:23.347Z",
  "networkType": "ethereum",
  "devdoc": {
    "kind": "dev",
    "methods": {},
    "version": 1
  },
  "userdoc": {
    "kind": "user",
    "methods": {},
    "version": 1
  }
}